:020000040800F2
:10000000280900200101000881260008191A0008AB
:10001000A5200008310F0008413900080000000049
:10002000000000000000000000000000512F000848
:10003000ED0F000800000000AD2900083D30000869
:100040001B0100081B0100081B0100081B01000820
:100050001B0100081B0100081B0100081B01000810
:100060001B0100081B0100081B0100081B01000800
:100070001B0100081B0100081B0100081B010008F0
:100080001B0100081B0100081B0100081B010008E0
:100090001B0100081B0100081B0100081B010008D0
:1000A0001B0100081B0100081B0100081B010008C0
:1000B0001B010008D93100081B0100081B010008C2
:1000C0001B0100081B0100081B0100081B010008A0
:1000D0001B0100082D3600081B0100082937000805
:1000E0001B0100081B0100081B010008DFF80CD0F1
:1000F00000F0C0FB004800476942000828090020C2
:100100000648804706480047FEE7FEE7FEE7FEE7B1
:10011000FEE7FEE7FEE7FEE7FEE7FEE74D300008FC
:10012000ED000008D2B201E000F8012B491EFBD21D
:1001300070470022F6E710B513460A4604461946F2
:10014000FFF7F0FF204610BDF0B480EA0102D40FA3
:100150004200B2EB410F02D20246084611464A0065
:1001600042D0C30DDDB2C1F3C752AD1A202D35DA2E
:10017000C1F3160141F4000204B15242C5F1200658
:1001800002FA06F12A411044B3EBD05F23D0C4B188
:10019000012DA0EBC35009DCF0BC4FF0004202EA95
:1001A000C352DBB200F5000000F0C2BA400000F11B
:1001B000807000EBC350A0F1807040EAD17049001C
:1001C00009E0490841EAC071A0EBC35000F5000006
:1001D000400800EBC350F0BC00F0A1BA614201221C
:1001E00002EB4101001BF6E7F0BC704781F00041D3
:1001F000AAE780F00040A7E780EA010210B502F00C
:100200000043400022D04A001FD0010E01EB1261D2
:10021000C0F35600C2F3560240F4000042F400025C
:10022000A0FB022000047F39140400D0401C50EAD7
:10023000124001D44000491EC2B20C0604EBD0109B
:10024000401C4008802A02D003E0002010BD20F0AE
:100250000100002900DA0020184310BD30B480EA04
:10026000010202F0004530F0004221F0004013D0BE
:1002700090B1C30DD40DC2F31601C0F31600E41AF9
:1002800041F4000140F400027D34914201D3641C2A
:1002900000E04900002C02DA30BC002070474FF427
:1002A00000000023914201D3891A034340084FEA1A
:1002B0004101F7D151B1914202D14FF0004105E027
:1002C00002D24FF0010101E06FF0010103EBC450D5
:1002D000284430BC00F023BA2DE9FE4F804681EA65
:1002E0000300C00F0C46009021F0004123F00045B0
:1002F000B8EB0200A94105D24046214690461C4673
:100300000B46024623F00040104347D0270DC7F3A9
:100310000A00C3F30A510290401A019040286BDA98
:10032000C3F3130040F4801B0098924620B10023D1
:10033000D2EB030A63EB0B0B01985946C0F1400264
:10034000504600F0BBF906460D4650465946019A04
:1003500000F0D3F910EB08006141002487EA115244
:1003600084EAE7731A4340D0009A62B3019A012AE3
:100370004FEA075215DC001B61EB02014FF000420F
:1003800002EA0752CDE90042001C41F580113246D5
:100390002B4600F00AFA03B0BDE8F08F4046214634
:1003A000F9E7001B61EB0201001C41F58013001806
:1003B0005B412018A2F5001747EB030140EAD57016
:1003C000B6196D4111E06D084FEA360645EAC07571
:1003D0004FEA0752001B61EB0201001C41F580113E
:1003E00049084FEA30000019514132462B4603B00C
:1003F000BDE8F04F00F0CAB9009801224000002388
:10040000D0EB020263EBE073009821464FEAE07400
:10041000B8EB000061EB0401E9E783F000435BE720
:1004200081F0004158E72DE9FE4F81EA030404F012
:10043000004421F0004100944FF0000B23F00043F2
:1004400050EA01045ED052EA03045BD0C3F30A54BD
:10045000C1F30A552C44A4F2F3340194A0FB0254D6
:10046000C1F3130141F48011C3F3130343F4801368
:1004700001FB024400FB034E840A970A44EA8154BC
:1004800047EA8357A4FB076802958D0A05FB078599
:100490004FEA932C04FB0C542705029D4FEA0658A3
:1004A00047EA1637B5EB08056EEB070C870E920E80
:1004B00047EA811742EA8312A7FB0201B6EB0B0160
:1004C00064EB00042B0D43EA0C335E1844EB1C5024
:1004D000DA465146E7FB0201C5F313044FEA0B333A
:1004E00043EA14534FEA0432019C43EA0603A4F1A1
:1004F0000C040294009CCDE900B400F056F903B05E
:10050000BDE8F08F00200146F9E72DE9F04D81EAC2
:10051000030404F0004B21F0004514464FF0000A9C
:1005200023F0004150EA050220D054EA01021DD018
:10053000C5F30A570246C5F31303C1F31300C1F311
:100540000A5640F4801543F48013A7EB0608101BED
:10055000D64608F2FD3873EB050002D308F1010816
:1005600001E092185B41B8F1000F03DA0020014668
:10057000BDE8F08D00204FF48011064684460EE061
:10058000171B73EB050705D3121B63EB050306432B
:100590004CEA010C49084FEA300092185B4150EADE
:1005A0000107EDD152EA030012D082EA040083EA87
:1005B0000501084305D0101BAB4106D201220023E0
:1005C00006E000224FF0004302E06FF001025310FA
:1005D0001AEB06004CEB085110EB0A0041EB0B0143
:1005E000BDE8F04D00F0D2B8C10F80EAE0700844D9
:1005F000CA079623002100F09BB8962300221146DB
:1006000000F096B800F0004220F00040C10DC0F3A9
:10061000160040F400007F2901DA00207047962977
:1006200003DCC1F19601C84001E096398840002AF8
:10063000F4D04042704700F0004230F000400AD051
:10064000C10D01F56071C0F3160042EA0151C20804
:1006500040071143704700200146704701F00043F6
:1006600030B421F0004150EA010206D00A0DA2F593
:100670006072C1F31301002A02DC30BC0020704715
:10068000440F44EAC104C100E01830BC00EBC25082
:1006900000F045B8002801DBC0F10040002901DB73
:1006A000C1F1004181427047002801DBC0F10040E8
:1006B000002901DBC1F1004188427047202A04DB98
:1006C000203A00FA02F1002070479140C2F1200365
:1006D00020FA03F3194390407047202A04DB203AA4
:1006E00021FA02F00021704721FA02F3D040C2F152
:1006F00020029140084319467047202A06DBCB1799
:10070000203A41FA02F043EAE07306E041FA02F3CC
:10071000D040C2F120029140084319467047002999
:10072000A8BF7047401C490008BF20F00100704777
:1007300010B4B0FA80FC00FA0CF050EA010404BFD7
:1007400010BC704749B1CCF1200421FA04F411FA2D
:100750000CF118BF012121430843A3EB0C01CB1D71
:100760004FEA00614FEA102042BF002010BC7047E2
:1007700000EBC35010440029A4BF10BC7047401CBC
:10078000490008BF20F0010010BC704710B5141ECE
:1007900073F1000408DA401C41F1000192185B413A
:1007A0001A4301D120F0010010BD2DE9F04D924611
:1007B0009B4611B1B1FA81F202E0B0FA80F2203228
:1007C0009046FFF77BFF04460F4640EA0A0041EAE5
:1007D0000B0153465A46084313D0114653EA010011
:1007E00019D0C8F140025046FFF777FF05460E4684
:1007F000504659464246FFF761FF084305D00120A5
:1008000004E020463946BDE8F08D0020054346EA65
:10081000E0762C4337430A986305E40AA0EB08000E
:100820000022FD0A44EA47540A3002D5002001465E
:10083000E9E7010510196941DDE908450019694139
:10084000BDE8F04DA2E770B521F0004303430CD0A2
:10085000C1F30A550024D5EB040564EB0403D61755
:10086000AD1AB34102DB0020014670BD201841EBF8
:10087000025170BD064C074D06E0E06840F00103F0
:1008800094E8070098471034AC42F6D3FFF732FCE7
:10089000E8470008084800082DE9F04D00231A46F3
:1008A0001B1A8A4103DB00200146BDE8F08DC1F32D
:1008B0000A52C1F3130141F480154FF0000BD10728
:1008C00002D100186D41521E0027044640F2FF116C
:1008D000384601EB620A3E468046024600204FF44D
:1008E0008011FFF7FAFEC2197141BB1846EB0100F7
:1008F000B4EB030C75EB000C04D3E41A65EB0005B4
:1009000017460E46241908F101006D41804634282F
:10091000E3DDF91946EB0600091BA84103D24FF0AD
:10092000FF32134601E0002213461BEB070046EBA3
:100930000A51BDE8F04DFFF729BF70B58C1810F8CB
:10094000015B15F0070301D110F8013B2A1106D114
:1009500010F8012B03E010F8016B01F8016B5B1E2E
:10096000F9D12B0705D40023521E0DD401F8013B09
:10097000FAE710F8013BCB1A921C03E013F8015B75
:1009800001F8015B521EF9D5A142D8D3002070BDF9
:1009900070B5002600203549087001F0BDFA03F05B
:1009A00055FD01F063FB02F065FE03F079FE02F0F5
:1009B0007DFB01F069FF03F04BFE00BF2C4801F006
:1009C0000FFF00283FD10025002405E02848005DE6
:1009D0002844C5B2601CC4B21F2CF7DB2448C07F7A
:1009E000A8422FD122480078AA282BD1204840784D
:1009F000AF2827D11E48807F20B1012803D00928C5
:100A00000BD101E01DE01CE001F0FCFD01201949C3
:100A1000087000201549887013E000BF03F0E4FB64
:100A20000028FBD000BF02F08DFF0028FBD0012082
:100A30000E494870887001F0E5FD01200D490870ED
:100A400000BF00BF00BF0A4801F0CAFE0028B5D1B0
:100A5000084800780028B1D002F08CFB002106483D
:100A600002F0A3FE01200149487170BD260000205C
:100A7000240300202C000020004800402DE9F04F06
:100A800087B00746022601AC4FF000084FF000097E
:100A90004FF0000A162F7CD2DFE807F0CEA4949323
:100AA000CECD91A3CECECECECECECECE0B12191EB3
:100AB0001F20DFF8F081DFF8F091DFF8F0A10EE001
:100AC000DFF8EC81DFF8EC91DFF8ECA107E0DFF86C
:100AD000EC81DFF8EC9102E000BF00BF00BFB8F18D
:100AE000000F20D0D8F810007649FFF785FB834629
:100AF000FFF788FD00B2ADF80800D8F8140071497E
:100B0000FFF77AFB8346FFF77DFD00B2ADF80A00E0
:100B1000D8F818006B49FFF76FFB8346FFF772FDAB
:100B200000B2ADF80C00B9F1000F20D0D9F81000D8
:100B30006449FFF761FB8346FFF764FD00B2ADF83F
:100B40000E00D9F814005F49FFF756FB8346FFF704
:100B500059FD00B2ADF81000D9F818005949FFF757
:100B60004BFB8346FFF74EFD00B2ADF81200BAF121
:100B7000000F22D0DAF810005249FFF73DFB834600
:100B8000FFF740FD00B2ADF81400DAF814004D494B
:100B900000E051E0FFF730FB8346FFF733FD00B282
:100BA000ADF81600DAF818004649FFF725FB834632
:100BB000FFF728FD00B2ADF8180012263DE0082628
:100BC0003BE03AE040480168029141680391806847
:100BD00004903E48016805918088ADF818001226FF
:100BE0002BE02AE03A48006880F000403949009044
:100BF000FFF702FB8346FFF705FD00B2ADF80800E2
:100C0000334948683349FFF7F7FA8346FFF7FAFCA0
:100C100000B2ADF80A002E48806880F000402D49EF
:100C20000090FFF7E9FA8346FFF7ECFC00B2ADF85D
:100C30000C00062601E000E000BF00BF4AF6AA2033
:100C4000ADF8040046EA072000B2ADF806005421D2
:100C5000301D215402251AE06057691C6156484036
:100C60006055681C205661574840691C60546057A5
:100C7000615648406055615D681C205C0144301D30
:100C8000205C084441B2301D2154A81CC5B2301D5F
:100C90008542E1DB701DC1B2204602F05FFD07B066
:100CA000BDE8F08F84010020B8010020EC01002095
:100CB000540200202002002088020020BC020020F4
:100CC000F002002000007A445C0100202000002097
:100CD000680100200000C8422DE9F84386480078EA
:100CE00020B1012806D0022872D116E001208249E5
:100CF0000870FEE00220FFF7C1FE012003F062FA57
:100D00000120FFF7BBFE012003F05CFA7B4800786E
:100D100010B1022078490870EBE07848007810B9EB
:100D200001207549087075480078C0F38010B8B18B
:100D30001020FFF7A3FE012003F044FA1120FFF773
:100D40009DFE012003F03EFA1220FFF797FE0120DE
:100D500003F038FA6948007820F0400067490870CD
:100D60006648007800F03F0000287DD0002500266E
:100D700000276248007800F0010050B1604D614EDC
:100D8000614F624C5D48007820F001005B490870BB
:100D900020E05A480078C0F3400050B15C4D5D4EF1
:100DA0005D4F5E4C5548007820F0020053490870B2
:100DB00010E052480078C0F3800050B1584D594EB1
:100DC000594C4E48007820F004004C49087001E06E
:100DD0008EE08EE065B320788DF8010060788DF8A4
:100DE0000000BDF80000FFF708FC80464F49FFF700
:100DF00035FA2861A0788DF80100E0788DF80000C0
:100E0000BDF80000FFF7F9FB80464849FFF726FAD6
:100E1000686120798DF8010060798DF80000BDF8D7
:100E20000000FFF7EAFB80464049FFF717FAA86188
:100E300076B3A0798DF80100E0798DF80000BDF857
:100E40000000FFF7DAFB80463849FFF707FA306108
:100E5000207A8DF80100607A8DF80000BDF800005E
:100E6000FFF7CBFB804600E041E03049FFF7F6F9A1
:100E70007061A07A8DF80100E07A8DF80000BDF86D
:100E80000000FFF7BAFB80462849FFF7E7F9B06199
:100E900067B3207B8DF80100607B8DF80000BDF802
:100EA0000000FFF7AAFB80462049FFF7D7F9386119
:100EB000A07B8DF80100E07B8DF80000BDF80000FC
:100EC000FFF79BFB80461949FFF7C8F97861207C42
:100ED0008DF80100607C8DF80000BDF80000FFF780
:100EE0008CFB80461149FFF7B9F9B86100BF00E0FB
:100EF00000BF00BFBDE8F883010100200001002011
:100F000084010020B8010020EC010020C004002072
:100F1000540200202002002088020020D204002079
:100F2000BC020020F0020020E404002000007A440B
:100F300000BFFEE770B506460C461546294620461A
:100F400003F04EFAA06A30602946304603F048FAB2
:100F500070BD00002249234A12788854214909783B
:100F6000491C204A11701E490978552902D00021D8
:100F7000117070471B490978012907DD1849497824
:100F8000532903D00021174A1170F2E71549097857
:100F90000B2923DB1249497853291BD11049897841
:100FA0000F4AD27841EA022109B20F4A11800C4956
:100FB00009790B4A527941EA022109B20A4A518061
:100FC00007498979064AD27941EA022109B2064ADB
:100FD000918000BF00BF0021024A117000BFC8E726
:100FE0005C030020B8000020B00000207047000023
:100FF00008B50121042001F0A5FD8020ADF8000016
:1010000010208DF8030003208DF802006946024885
:1010100000F0A4F808BD00000008014070B50446C7
:1010200042480078012806D00B280BD01F2817D083
:10103000FF286FD165E03E48007810B10B203B4996
:1010400008706BE008213B4803F0B4F900203A49EE
:1010500048620860394988601F20344908705DE0A3
:101060003749B1F90600FFF7BFFA05463548016870
:101070002846FFF7C1F8344948623149B1F9080000
:10108000FFF7B2FA05462F4801682846FFF7B4F883
:101090002E4948622A49B1F90A00FFF7A5FA054628
:1010A000284801682846FFF7A7F8294948622348DD
:1010B00040682849486221480068274948621F481B
:1010C00080681D4948622146234803F089F9224877
:1010D000806A1D49086021461B4803F081F92146BA
:1010E0001C4803F07DF91B48806A184908602146B6
:1010F000164803F075F922460F491548FFF71AFF05
:101100000CE008210B4803F055F90120074908704D
:1011100004E0FFE7FF200549087000BF00BF044856
:10112000007810B9FF200149087070BD340100201B
:10113000260000200C010020880200206801002009
:101140005C010020E846000884010020B80100206E
:10115000EC01002020020020540200202DE9F04183
:10116000024600250026002000230024002791F8D5
:1011700003C00CF00F0591F803C00CF0100CBCF18B
:10118000000F03D091F802C04CEA050591F800C0A9
:10119000BCF1000F31D0146800202BE04FF0010C9F
:1011A0000CFA00F3B1F800C00CEA03069E4220D10D
:1011B00083004FF00F0C0CFA03F7BC4305FA03FC55
:1011C0004CEA040491F803C0BCF1280F06D14FF09B
:1011D000010C0CFA00FCC2F814C00AE091F803C03C
:1011E000BCF1480F05D14FF0010C0CFA00FCC2F81D
:1011F00010C0401C0828D1D31460B1F800C0BCF165
:10120000FF0F34DD546800202EE000F1080C4FF091
:10121000010808FA0CF3B1F800C00CEA03069E427C
:1012200021D183004FF00F0C0CFA03F7BC4305FAF1
:1012300003FC4CEA040491F803C0BCF1280F05D16B
:1012400000F1080C08FA0CF8C2F8148091F803C0F9
:10125000BCF1480F07D100F1080C4FF0010808FA63
:101260000CF8C2F81080401C0828CED35460BDE8AA
:10127000F0810246002093680B400BB1012000E092
:10128000002070470161704707B5A4B04FF07C5152
:101290002698FEF7B1FF1190FE4880680D90FD483A
:1012A00000680C900D99FEF7A7FF0F90F948C068F1
:1012B0000D90F84840680C900D99FEF79DFF0E9038
:1012C0000F99FEF793FF4FF080411090FEF794FFC7
:1012D0002090F048C0680D90EE4880680C900D9901
:1012E000FEF78AFF0F90EB4840680D90E9480068D0
:1012F0000C900D99FEF780FF0E900F99FEF724FFDA
:101300004FF080411090FEF777FF2190E148806810
:101310000C90E04880680B900C99FEF76DFF0E90E2
:10132000DC4840680C90DB4840680B900C99FEF755
:1013300063FF0D900E99FEF707FF4FF080410F906D
:10134000FEF75AFF4FF07E511090FEF752FF2290A9
:10135000D148B0F904000B90FFF746F90D90CE4844
:10136000B0F904000B90FFF73FF90C900D99FEF7D0
:1013700043FF0F90C848B0F902000990FFF734F915
:101380000B90C548B0F902000990FFF72DF90A90BB
:101390000B99FEF731FF0D90BF48B0F9000009909E
:1013A000FFF722F90B90BC48B0F900000990FFF755
:1013B0001BF90A900B99FEF71FFF0C900D99FEF791
:1013C000C3FE0E900F99FEF7BFFE109001F082FB56
:1013D000B24908602498B0F900000F90FFF704F9B3
:1013E0001090AE4801681098FEF706FF1D902498F3
:1013F000B0F902000F90FFF7F7F81090A7480168C6
:101400001098FEF7F9FE1E902498B0F904000F9092
:10141000FFF7EAF81090A14801681098FEF7ECFE7B
:101420001F9021980E901F980D900E99FEF7E4FEE4
:10143000109022980E901E980D900E99FEF7DCFEEB
:101440000F901099FEF7D2FE179022980E901D98DB
:101450000D900E99FEF7D0FE109020980E901F98D8
:101460000D900E99FEF7C8FE0F901099FEF7BEFE84
:10147000189020980E901E980D900E99FEF7BCFEC5
:10148000109021980E901D980D900E99FEF7B4FEC5
:101490000F901099FEF7AAFE199017980F908048A8
:1014A00001680F98FEF7A8FE10907E48006801467C
:1014B0000F901098FEF748FE7A49086018980F9030
:1014C000774801680F98FEF797FE109075484068BE
:1014D00001460F901098FEF737FE72494860199840
:1014E0000F906F4801680F98FEF786FE10906D48C8
:1014F000806801460F901098FEF726FE69498860C3
:10150000179801460D9068480068FEF775FE0F9029
:101510002498B0F906000C90FFF766F80D90634828
:1015200001680D98FEF768FE0E900F99FEF70CFE0D
:1015300010905C48006801460F901098FEF704FE7A
:101540001A90189801460D9057480068FEF754FE0F
:101550000F902498B0F908000C90FFF745F80D9013
:10156000524801680D98FEF747FE0E900F99FEF75E
:10157000EBFD10904B48406801460F901098FEF725
:10158000E3FD1B90199801460D9047480068FEF74F
:1015900033FE0F902498B0F90A000C90FFF724F85E
:1015A0000D90424801680D98FEF726FE0E900F99A7
:1015B000FEF7CAFD10903B48806801460F901098D6
:1015C000FEF7C2FD1C901C980D903248C0680C902C
:1015D0000D99FEF711FE0F901B980B902D48806817
:1015E0000A900B99FEF708FE0D902A48406880F09B
:1015F00000400B901A9801460A900B98FEF7FCFDEC
:101600000C900D99FEF7F2FD0E900F99FEF7EEFD8E
:1016100010901199FEF7F0FD16901C980D901D4842
:1016200080680C900D99FEF7E7FD0F901B980B90CA
:101630001848C0680A900B99FEF7DEFD0D901A98C5
:101640000B90144800680A900B99FEF7D5FD0C909A
:101650000D99FEF7CBFD0E900F99FEF775FD1090DA
:101660001199FEF7C9FD15901C980D900948406826
:101670000C900D99FEF7C0FD0F901B980B9005483C
:1016800000680A900B99FEF7B7FD0D901A980B9021
:1016900000480DE0480100205C0100203C010020D2
:1016A000440100201805002040010020EC460008FD
:1016B000C0680A900B99FEF79FFD0C900D99FEF7FC
:1016C00043FD0E900F99FEF791FD10901199FEF7D2
:1016D00093FD14901C980D90B94800680C900D99DA
:1016E000FEF78AFD0F901B980B90B54840680A9052
:1016F0000B99FEF781FD0D90B148806880F00040A5
:101700000B901A9801460A900B98FEF775FD0C9005
:101710000D99FEF719FD0E900F99FEF715FD10902B
:101720001199FEF769FD1390A5480068109016996D
:10173000FEF70AFDA2490860084640681090159916
:10174000FEF702FD9E494860084680681090149993
:10175000FEF7FAFC9A4988600846C0681090139911
:10176000FEF7F2FC9649C8600846C0680D9008462E
:10177000C0680C900D99FEF73FFD0F90904880686F
:101780000B908F4880680A900B99FEF735FD0D90FD
:101790008B48406809908A48406808900999FEF78C
:1017A0002BFD0B90864800680990854800680890DA
:1017B0000999FEF721FD0A900B99FEF7C5FC0C90E4
:1017C0000D99FEF7C1FC0E900F99FEF7BDFC10902D
:1017D00001F080F912907A48006810901299FEF793
:1017E0000BFD774908600846406810901299FEF793
:1017F00003FD734948600846806810901299FEF70F
:10180000FBFC6F4988600846C06810901299FEF78B
:10181000F3FC6B49C8602498B0F90A000E90FEF7FB
:10182000E3FE0F90674801680F98FEF7E5FC109003
:1018300065491098FEF738FF04D364491098FEF705
:1018400029FF0DD226991098FEF7D6FC0F90259807
:10185000806801460E900F98FEF776FC2599886007
:101860005B480068FEF7E7FECDE90C01544840688C
:10187000014603904FF08040FEF7BEFC04905048B4
:10188000C068014603900498FEF7B6FC06904C48E9
:101890000068014603904FF08040FEF7ADFC0490D5
:1018A00047488068014603900498FEF7A5FC059020
:1018B0000699FEF79BFC0790FEF7BDFECDE90801F7
:1018C00002F066F9CDE90A01DDE90C23FEF7ABFD74
:1018D000CDE90E01FEF7C2FE259948603C4800683C
:1018E000FEF7A9FECDE90C0135488068014601905C
:1018F0004FF08040FEF780FC02903148806801463E
:1019000001900298FEF778FC04902D48406801464B
:1019100000904FF08040FEF76FFC0190284840682F
:10192000014600900198FEF767FC4FF07E5102904F
:10193000FEF75FFC03900499FEF758FC0590FEF754
:101940007AFECDE908011E480068014601904FF07B
:101950008040FEF751FC0290194840680146019012
:101960000298FEF749FC04901548806801460190F2
:101970004FF08040FEF740FC02901148C0680146DD
:1019800001900298FEF738FC03900499FEF7DCFB07
:101990000590FEF750FECDE90601DDE9082302F0CF
:1019A0003FFBCDE90A01DDE90C23FEF73CFDCDE963
:1019B0000E01FEF753FE2599086027B000BD000018
:1019C00048010020E846000800004040000040C0F8
:1019D000E046000800BF0E4801684FF0E020826931
:1019E0000B4800688142F6D10A48006800EB4003CA
:1019F000C3EBC010C2EBC000064B1B68B0FBF3F09A
:101A000001EB4103C3EBC11300EBC30070470000BF
:101A10001C0000201400002000BFFEE708B5402095
:101A2000304908600120009004E09DF80000401E4D
:101A3000C0B200909DF800000028F6D1802029490E
:101A400008600120009004E09DF80000401EC0B234
:101A500000909DF800000028F6D140202149091F80
:101A600008600120009004E09DF80000401EC0B214
:101A700000909DF800000028F6D10120009004E0BD
:101A80009DF80000401EC0B200909DF800000028A4
:101A9000F6D10120009004E09DF80000401EC0B285
:101AA00000909DF800000028F6D10120009004E08D
:101AB0009DF80000401EC0B200909DF80000002874
:101AC000F6D14020074908600120009004E09DF80D
:101AD0000000401EC0B200909DF800000028F6D122
:101AE00008BD0000140C014008B5402030490860D2
:101AF0000120009004E09DF80000401EC0B200905C
:101B00009DF800000028F6D180202949091F0860AF
:101B10000120009004E09DF80000401EC0B200903B
:101B20009DF800000028F6D140202149091F0860D7
:101B30000120009004E09DF80000401EC0B200901B
:101B40009DF800000028F6D10120009004E09DF8E7
:101B50000000401EC0B200909DF800000028F6D1A1
:101B60000120009004E09DF80000401EC0B20090EB
:101B70009DF800000028F6D10120009004E09DF8B7
:101B80000000401EC0B200909DF800000028F6D171
:101B90004020074908600120009004E09DF8000003
:101BA000401EC0B200909DF800000028F6D108BD8C
:101BB000140C014008B50821002080222C4B1A602B
:101BC0004CE04206100E4022294B1B1D1A600122D8
:101BD000009204E09DF80020521ED2B200929DF8BF
:101BE0000020002AF6D10122009204E09DF8002096
:101BF000521ED2B200929DF80020002AF6D1402257
:101C00001B4B1A600122009204E09DF80020521E36
:101C1000D2B200929DF80020002AF6D10122009253
:101C200004E09DF80020521ED2B200929DF80020E0
:101C3000002AF6D10122009204E09DF80020521EF5
:101C4000D2B200929DF80020002AF6D1084A083A44
:101C5000126802F080020AB140F001000A00A1F10E
:101C60000103D9B2ADD14022014B1B1D1A6008BD42
:101C7000100C014008B5082150E040222C4B1A609E
:101C80000122009204E09DF80020521ED2B2009280
:101C90009DF80020002AF6D100F0800222B18022B7
:101CA000234B1B1F1A6002E08022214B1A60420660
:101CB000100E0122009204E09DF80020521ED2B2C4
:101CC00000929DF80020002AF6D14022184B1B1FDD
:101CD0001A600122009204E09DF80020521ED2B248
:101CE00000929DF80020002AF6D10122009204E023
:101CF0009DF80020521ED2B200929DF80020002ACA
:101D0000F6D10122009204E09DF80020521ED2B2CA
:101D100000929DF80020002AF6D100BF0A00A1F130
:101D20000103D9B2A9D14022014B1A6008BD0000BD
:101D3000140C014008B5802022490860402008604A
:101D40000120009004E09DF80000401EC0B2009009
:101D50009DF800000028F6D11A480838006808B934
:101D6000012000E0002000F0800008B1012008BD43
:101D700080201449091D08600120009004E09DF8AE
:101D80000000401EC0B200909DF800000028F6D16F
:101D90000C480838006800F0800008B10120E6E730
:101DA00040200849091D08600120009004E09DF8CA
:101DB0000000401EC0B200909DF800000028F6D13F
:101DC00000BFD4E7100C014008B54020244908604A
:101DD0000120009004E09DF80000401EC0B2009079
:101DE0009DF800000028F6D180201D4908600120E0
:101DF000009004E09DF80000401EC0B200909DF8E5
:101E000000000028F6D10120009004E09DF80000B9
:101E1000401EC0B200909DF800000028F6D140207E
:101E20000F49091F08600120009004E09DF80000A0
:101E3000401EC0B200909DF800000028F6D180201E
:101E40000749091F08600120009004E09DF8000088
:101E5000401EC0B200909DF800000028F6D108BDD9
:101E6000140C014008B540202A4908600120009068
:101E700004E09DF80000401EC0B200909DF80000F4
:101E80000028F6D180202349091F08600120009016
:101E900004E09DF80000401EC0B200909DF80000D4
:101EA0000028F6D140201B49091F0860012000903E
:101EB00004E09DF80000401EC0B200909DF80000B4
:101EC0000028F6D10120009004E09DF80000401E9B
:101ED000C0B200909DF800000028F6D101200090CB
:101EE00004E09DF80000401EC0B200909DF8000084
:101EF0000028F6D107480C38006800F0800020B1B7
:101F0000402004490860012008BD402001490860C4
:101F10000020F9E7140C014008B50121082000F069
:101F200011FEC020ADF8000003208DF8020014203F
:101F30008DF8030069460248FFF710F908BD00005C
:101F4000000C014070B504460D460026FFF7F2FE76
:101F5000012800D170BD2046FFF78CFEFFF782FFFD
:101F6000012803D1FFF730FF0120F3E72846FFF7F0
:101F700081FEFFF777FFFFF727FFFFF7DBFE611C0E
:101F8000C8B2FFF777FEFFF76DFF012803D1FFF717
:101F90001BFF0120DEE7FFF70DFE0646FFF7A4FD5D
:101FA000FFF712FF70B2D5E770B506460C4615462E
:101FB000FFF7C0FE012800D170BD3046FFF75AFE82
:101FC000FFF750FF012803D1FFF7FEFE0120F3E7E2
:101FD0002046FFF74FFEFFF745FF2846FFF74AFE72
:101FE000FFF740FFFFF7F0FE0020E5E72DE9F041A5
:101FF00006460F4615461C46FFF79CFE012801D1F8
:10200000BDE8F0813046FFF735FEFFF72BFF0128D2
:1020100003D1FFF7D9FE0120F2E73846FFF72AFE89
:10202000FFF720FFFFF7D0FEFFF784FE711CC8B258
:10203000FFF720FEFFF716FF012803D1FFF7C4FECC
:102040000120DDE70CE0FFF7B5FD2870012C02D17F
:10205000FFF74AFD01E0FFF7E1FC6D1C601EC4B212
:10206000002CF0D1FFF7B0FE0020C9E708B54FF013
:1020700000700A4948600121082000F063FD40F229
:102080000630ADF8000010208DF8030003208DF815
:10209000020069460248FFF761F808BD00000140F0
:1020A000000C014000BFFEE72DE9F047C44800786E
:1020B00010B9FF20C3490870C148407801280FD1EA
:1020C000BF48007860B9BE488078012808D1502008
:1020D000BC490870C820BC49C880888048800880F6
:1020E000B748407801280DD1B5480078012809D1BA
:1020F000B3488078012805D1B1484079012801D141
:10210000B0490870AE48407848B9AD480078012819
:1021100005D1AE480068012801D1AA490870A94834
:102120000078012806D0022815D01F2839D0FF28B2
:102130007ED1DFE00020A449C880888048800880E4
:102140009F480078012805D102209E490870002090
:102150009E49086000BF9E48808840F24C418842FA
:1021600002DD1F209749087095488078C0B19448D7
:10217000C078A8B196488088B0F5966F10DA90487C
:10218000007801280CD18E484079012808D1C82058
:102190008D49C8808880488008800220894908705D
:1021A000B3E000208649C870487189498988A1F543
:1021B0007A70FEF719FA06468648816A3046FDF7BE
:1021C000C3FF0546FEF71EFA04B281488088B0F5C9
:1021D0007F7F06DA00207C49C8808880488008809C
:1021E00093E0002C01DA002006E0B4F5617F02DD07
:1021F0004FF4617000E020467349C88088804880B1
:102200000880754A916A754A906AFDF7EFFF80462B
:102210007348816A4046FDF7E9FF06466A49B1F90D
:102220000000FEF7E1F907463146FDF78DFF00E0BB
:102230006AE00546FEF7E6F900B263490880664A9F
:10224000916A664A906AFDF77FFF80466448816A1A
:102250004046FDF779FF06465B49B1F90200FEF7FB
:10226000C3F907463146FDF76FFF0546FEF7CAF989
:1022700000B2554948805948806A80F00048564865
:10228000816A4046FDF760FF07465548816A384637
:10229000FDF7ACFF06464C49B1F90400FEF7A4F97E
:1022A00081463146FDF750FF0546FEF7ABF900B217
:1022B000454988804948806A80F000484648816ADC
:1022C0004046FDF793FF07464548816A3846FDF7CB
:1022D0003BFF06463C49B1F90600FEF785F9814609
:1022E0003146FDF731FF0546FEF78CF900B236495D
:1022F000C8800AE000203449C8808880488008806F
:1023000001203049087000E000BF00BF2E48B0F93E
:102310000000002801DA00200BE02B48B0F9000093
:10232000B0F57A7F02DD4FF47A7002E02648B0F90A
:1023300000004FF0804188862348B0F90200002851
:1023400001DA00200BE02048B0F90200B0F57A7FF6
:1023500002DD4FF47A7002E01B48B0F902004FF042
:10236000804108871848B0F90400002801DA0020ED
:102370000BE01548B0F90400B0F57A7F02DD4FF4A8
:102380007A7002E01048B0F904004FF0804188876D
:102390000D48B0F90600002801DA00200BE00A48D9
:1023A000B0F90600B0F57A7F02DD4FF47A7002E0F2
:1023B0000548B0F906000B490880BDE8F087000029
:1023C00026000020350100202C01002038010020CB
:1023D00074010020BC020020B8010020840100200C
:1023E000EC010020400000402DE9FE4F06236A4624
:1023F0003B21D020FFF7FAFD06230DF10602432111
:10240000D020FFF7F3FD002458E0012000EB44004A
:102410001DF800001DF8141040EA0120294931F888
:102420001410401A00B22849096821F81400032C3E
:102430001BDA2549096831F91400FEF7D5F805467D
:1024400004EB4401214A02EBC100294601F0E0FE01
:1024500004EB44011D4A02EBC1018868FEF7D2F883
:1024600000B21949096821F81400022C24DDE01E8D
:10247000C5B2DFF85C801449096831F91400FEF731
:10248000B3F882464146FDF7B7FE0746114951F8B9
:1024900025001149FDF7B0FE81463946FDF754FE8F
:1024A0000C4941F825000646FEF7ACF800B2064993
:1024B000096821F8140000BF601CC4B2062CA4DB1C
:1024C000BDE8FE8F44030020540000205800002087
:1024D0009A99193E500300209A99593FF0B58BB054
:1024E000182105A8FDF725FE1E25052677420020A8
:1024F00003900490404800210160416081604FF4E6
:1025000000503D498880002201213C4800F0D6FE61
:102510003BE000BF0A2001F055FEFFF765FF0024F5
:1025200016E037480168E01C31F8100003A931F8C3
:102530001410401A00B201A921F8140030480168B3
:10254000E01C31F8100003A921F81400601C04B24B
:10255000032CE6DBBDF904000528DBDCBDF9040033
:1025600010F1050FD6DBBDF906000528D2DCBDF958
:10257000060010F1050FCDDBBDF908000528C9DC08
:10258000BDF9080010F1050FC4DB2800A5F1010119
:10259000CDB2BED1002417E0FFF726FF642C11DB7B
:1025A00000200CE005A951F82010154A126832F9F4
:1025B0001020114405AA42F82010411CC8B2062878
:1025C000F0DB00BF601C04B2B4F5B27FE4DB002492
:1025D00009E005A850F82400001200B2064921F8CD
:1025E0001400601C04B2062CF3DB012211460348E0
:1025F00000F064FE0BB0F0BD440300200004004076
:102600005400002010B5002400BF80226B21D02090
:10261000FFF7CAFCC4B21E2001F0D4FD022219212A
:10262000D020FFF7C1FC2044C4B203226B21D0208C
:10263000FFF7BAFC2044C4B203221A21D020FFF7CE
:10264000B3FC2044C4B218221B21D020FFF7ACFCFD
:102650002044C4B209221C21D020FFF7A5FC20444D
:10266000C4B2002CD1D17521D020FFF76BFCC4B2CD
:10267000682C01D0012010BDFFF730FF0020FAE7E1
:10268000704700001FB510A103C9CDE90201052262
:1026900002A9302000F0BEF805226946102000F0A3
:1026A00067F8002406E01DF80400A52800D003E028
:1026B000601CC4B2052CF6DB00BF052C02D0012043
:1026C00004B010BD0020FBE7A5A5A5A5A50000004E
:1026D00008B50121042000F035FA4FF40060ADF890
:1026E000000010208DF8030003208DF802006946D9
:1026F0001D48FEF733FD0121082000F023FA4FF4B6
:102700008050ADF8000010208DF8030003208DF8F4
:10271000020069461548FEF721FD4FF4006012499A
:102720001031086040001149103108600011ADF807
:10273000000048208DF8030003208DF80200694650
:102740000948FEF70BFD4FF480710748FEF79AFD2C
:1027500000F06CFB4FF40060034914310860400046
:1027600002491031086008BD00080140000C01401A
:102770002DE9F04107460D4616464FF480500C49AE
:102780000860384600F0C8FB8046002405E0FF20C2
:1027900000F0C2FB2855601CC4B2B442F7DB4FF412
:1027A00080500349091F08604046BDE8F0810000E1
:1027B000140C014070B504464FF48050074908607E
:1027C000204600F0A9FBFF2000F0A6FB05464FF4D1
:1027D00080500249091F0860284670BD140C014052
:1027E00070B504460720FFF7E5FF05462946272078
:1027F00000F032F805F0400050B12022214661205F
:10280000FFF7B6FFFF21E22000F026F8002070BDA0
:102810000120FCE72DE9F04107460C4615464FF430
:1028200080500C490860384600F076FB8046002650
:1028300005E014F8010B00F06FFB701CC6B2AE424D
:10284000F7DB4FF480500349091F08604046BDE89C
:10285000F0810000140C014070B505460C464FF4A1
:10286000805008490860284600F056FB064620467E
:1028700000F052FB4FF480500249091F08603046B7
:1028800070BD0000140C014010B5FFF721FF00BF20
:1028900000F094FAFFF7F6FE0128F9D010BD000011
:1028A00070B5002100230F22C47804B3154C2468AE
:1028B00004F4E064C4F5E064210AC1F10403CA40F1
:1028C000447804FA03F184781440214309010E4C42
:1028D0000678A155047804F01F050124AC40057862
:1028E0006D11AD0005F1E025C5F8004109E004785F
:1028F00004F01F050124AC40044D0678761145F81C
:10290000264070BD0CED00E000E400E080E100E056
:1029100002490143024A1160704700000000FA05B5
:102920000CED00E02DE9FC5F04460D462E1B1A4815
:102930000068FDF759FE8346184801685846FDF7C0
:102940005BFC814616480068FDF74EFE0090154876
:1029500001680098FDF750FC83463046FDF744FEC1
:102960000090114801680098FDF746FC5946019017
:10297000FDF73CFC82464946FDF7E6FB8046FDF745
:1029800041FE07460648006803490860044806609F
:102990003846BDE8FC9F0000FC000020D00000206D
:1029A000F8000020CC000020C80000207047000084
:1029B0004448006844490968401A444909888842E3
:1029C00000D270473F4800683F4908603F48807820
:1029D00006286FD2DFE800F026030E3243554FF48D
:1029E00000703B4908600220086000020860042073
:1029F000086063E03648001F006880F00200344938
:102A0000091F08600846006880F4007008600846E6
:102A1000006880F0040008600846006880F4807058
:102A200008604BE04FF400702949091D086002203E
:102A30000860C0010860042008603FE04FF40070A7
:102A4000234908600220091D0860C001091F0860B1
:102A50000420091D086002201C4988702EE0022015
:102A60001B49091D0860042008601948001F006800
:102A700080F400701649091F08606420134908801B
:102A80001CE04FF400701249091D086040100860F6
:102A90000F48001F006880F002000D49091F086000
:102AA0000846006880F00400086046200749088056
:102AB00004E0FFE701200549887000BF00BF00BFA8
:102AC0007FE700001C000020500000204C00002088
:102AD000100C01402DE9F05F04464FF07F594FF094
:102AE0007C512046FDF788FB824625462E460C4841
:102AF000A0EB6606354629465046FDF77DFB83462A
:102B00002946FDF779FB80464946FDF772FB0746EB
:102B10002946FDF771FB05462846BDE8F09F0000F9
:102B2000DF59375F29B1064AD2690243044BDA61A3
:102B300004E0034AD2698243014BDA617047000026
:102B40000010024029B1064A92690243044B9A617F
:102B500004E0034A92698243014B9A617047000086
:102B60000010024030B500210022002400232D4D2A
:102B70006D6805F00C0121B1042905D0082923D185
:102B800005E0294D056022E0274D05601FE0254D39
:102B90006D6805F47012234D6D6805F480340225CC
:102BA00005EB92421CB9214D554305600BE01D4DCC
:102BB0006D6805F400351DB11C4D5543056002E0FC
:102BC000194D5543056002E0174D056000BF00BF79
:102BD000144D6D6805F0F0010909154D6B5C056831
:102BE000DD4045600F4D6D6805F4E061090A104D48
:102BF0006B5C4568DD4085600A4D6D6805F4605189
:102C0000C90A0B4D6B5C4568DD40C560054D6D68BC
:102C100005F44041890B074D6B5CC568B5FBF3F5C6
:102C2000056130BD0010024000127A0000093D002D
:102C30002D0000203D0000202DE9F0415648FFF70F
:102C4000CFFD00287ED1002554490880002405E0EE
:102C50005148005D2844C5B2601CC4B21F2CF7DB8C
:102C60004D48C07FA8426ED14B480078AA28FAD1BF
:102C700049484078AF287CD147484079464909798E
:102C800040EA0120464908804348C0794249897991
:102C900040EA0120424948803F48407A3E49097A4B
:102CA00040EA01203E4988803B48C07A3A49897A07
:102CB00040EA01203A49C8803748407B3649097BC1
:102CC00040EA0120364908813348C07B3249897B7C
:102CD00040EA0120324948812F48407C2E49097C36
:102CE00040EA01202E4988812B48C07C2A49897CF2
:102CF00040EA01202A49C8812A4E2B4F498840F2D8
:102D0000DC52501AFDF770FC80463146FDF774FA2C
:102D1000264908602249098840F2DC52501AFDF722
:102D200063FC80463146FDF767FA214908601C487C
:102D3000C08840F21C7188420BDD1E4908684FF0C4
:102D40007D5101E016E014E0FDF7FEF91949086035
:102D50000DE01348C08840F29C41884207DA1549CB
:102D600008684FF07D51FDF741FA1249086001F003
:102D70009FFB0FE009480088401C0849088008466E
:102D80000088B0F5487F05DD002008800A490870FA
:102D9000FFF77AFDBDE8F081F60400200201002073
:102DA000740100200AD7233DA69BC43A20020020CC
:102DB00054020020880200202600002010B54FF4A5
:102DC000006012490860052211492A20FFF722FD00
:102DD00001212120FFF740FD01212220FFF73CFDCA
:102DE0002D212520FFF738FD20213120FFF734FD6C
:102DF0000F212620FFF730FD0F212020FFF72CFDAB
:102E00004FF400600149091F086010BD140801401B
:102E1000D546000821B1028842F04002028004E059
:102E200002884FF6BF731A400280704700B587B022
:102E300001218803FFF776FE01210920FFF782FEBA
:102E40004FF480511C48FEF71DFA4FF46040ADF876
:102E5000040003208DF8060018208DF8070001A952
:102E60001548FEF77BF900211448FFF7D3FF002037
:102E7000ADF808004FF48270ADF80A000020ADF8FC
:102E80000C00ADF80E00ADF810004FF40070ADF876
:102E900012001020ADF814000020ADF81600072035
:102EA000ADF8180002A9054800F018F80121034800
:102EB000FFF7B0FF07B000BD000C01400038004034
:102EC0000246002013890B400BB1012000E00020D6
:102ED00070470146888970478181704710B500228C
:102EE000028802F441520B884C8823438C88234388
:102EF000CC8823430C8923434C8923438C89234367
:102F0000CC8923431A430280838B4FF2FF74234002
:102F100083830B8A038210BD10B5044600BF0221D3
:102F20000A48FFF7CDFF0028F9D021460748FFF7F0
:102F3000D3FF00BF01210548FFF7C2FF0028F9D0E9
:102F40000248FFF7C6FFC0B210BD000000380040C5
:102F5000704710B500F002F810BD00000CB500205D
:102F6000019000903348006840F480303149086097
:102F700000BF3048006800F4003000900198401C09
:102F80000190009818B90198B0F5A06FF1D12948C7
:102F9000006800F4003010B10120009001E0002032
:102FA00000900098012843D12348006840F01000A9
:102FB000214908600846006820F0030008600846C0
:102FC000006840F0020008601A48406819494860EB
:102FD0000846406848600846406840F480604860A1
:102FE0000846406820F47C1048600846406840F479
:102FF000E81048600846006840F08070086000BF34
:103000000C48006800F000700028F9D009484068BA
:1030100020F00300074948600846406840F002007D
:10302000486000BF0348406800F00C000828F9D150
:103030000CBD000000100240002002400248006861
:10304000401C0149086070471C00002010B513485F
:10305000006840F0010011490860084640681049C6
:1030600008400E494860084600680E4908400B4970
:1030700008600846006820F4802008600846406820
:1030800020F4FE0048604FF41F008860FFF761FFE6
:103090004FF000600449086010BD000000100240BD
:1030A0000000FFF8FFFFF6FE08ED00E000B589B074
:1030B00001210420FFF746FD0F20ADF80400032096
:1030C0008DF8060018208DF8070001A92848FEF7A2
:1030D00045F801210846FFF725FD40F2E730ADF83D
:1030E0001C000820ADF818000020ADF81E00ADF857
:1030F0001A0006A94FF0804000F046FA6020ADF8B3
:1031000008000120ADF80A000020ADF80E00ADF86F
:10311000100002A94FF0804000F0DAF80821C8063C
:1031200000F022F902A94FF0804000F027F90821B1
:10313000C80600F075F902A94FF0804000F07EF952
:103140000821C80600F0CAF902A94FF0804000F03B
:10315000CFF90821C80600F009FA0121880700F01C
:1031600081F80121880700F08CF809B000BD00004B
:10317000000801401FB501210220FFF7D3FC1D20EC
:103180008DF8000001208DF8010003208DF8020069
:1031900001208DF803006846FFF782FB40F22B10F8
:1031A000ADF8080040F2CF20ADF804000020ADF8E3
:1031B0000A00ADF8060001A9064800F0E5F9012271
:1031C0001146044800F07AF80121024800F059F84D
:1031D0001FBD00000004004010B50121194800F097
:1031E0005CF870B318480068401C1749086017481D
:1031F0000078401C1549087015480078401C144997
:1032000008701248007801280BD100200F4908707F
:10321000FFF7EAF8FFF710FD0E48FDF7FFFEFEF797
:1032200043FF0B480078022807D1002008490870A6
:10323000094A0A490A48FEF727F80121014800F027
:103240001DF810BD000400401C00002018000020E4
:1032500019000020A69B443BB020CD3B6801002014
:103260005C01002021B1028842F08002028004E06B
:1032700002884FF67F731A4002807047CA43028269
:10328000704721B1028842F00102028004E0028806
:103290004FF6FE731A400280704730B50246002098
:1032A00000230024158A05EA0103958905EA010433
:1032B00013B10CB1012000E0002030BD1AB18389A8
:1032C0000B43838102E083898B4383817047000035
:1032D00070B5002400220023058C4FF6FE763540A1
:1032E0000584028C8388048B4FF68F752C40B51EA5
:1032F0002C400D882C43751E2A400D892A434D8889
:103300002A43144DA8420BD0134DA84208D0134DA8
:10331000A84205D0124DA84202D0124DA84213D1A6
:103320004FF6F7752A404D892A434FF6FB752A4020
:103330008D882A434FF6FF652B404FF6FF552B40F3
:103340008D892B43CD892B4383800483CD8885864B
:10335000028470BD002C0140003401400040014057
:1033600000440140004801400A460021018B4FF60D
:10337000F7731940114301837047000070B50024B2
:1033800000220023058C4FF6EF7635400584028C31
:103390008388048B48F6FF752C404FF6FF452C4080
:1033A0000D884FF6FF7606EA05252C434FF6DF75AC
:1033B0002A400D8906EA05152A434D8806EA0515B7
:1033C0002A43154DA84202D0144DA8421DD14FF6F4
:1033D0007F752A404D894FF6FF7606EA05152A4388
:1033E0004FF6BF752A408D8806EA05152A434FF629
:1033F000FF352B404FF2FF752B408D8906EA85057E
:103400002B43CD8906EA85052B4383800483CD8831
:103410000587028470BD0000002C0140003401408B
:103420000A460021018B4FF2FF7319404FF6FF73DC
:1034300003EA0223194301837047000070B500249A
:1034400000220023058C4FF6FF6635400584028C70
:103450008388848B4FF68F752C404FF6FC752C407B
:103460000D882C434FF6FF552A400D894FF6FF7605
:1034700006EA05252A434D8806EA05252A43154D07
:10348000A84202D0144DA8421DD14FF2FF752A4028
:103490004D894FF6FF7606EA05252A434FF6FF359C
:1034A0002A408D8806EA05252A434EF6FF752B40F3
:1034B0004DF6FF752B408D8906EA05152B43CD8906
:1034C00006EA05152B4383808483CD888587028493
:1034D00070BD0000002C0140003401400A4600216C
:1034E000818B4FF6F77319401143818370470000B9
:1034F00070B5002200230024058C4EF6FF7635407F
:103500000584038C8488828B48F6FF752A404FF629
:10351000FF452A400D884FF6FF7606EA05252A4327
:103520004DF6FF752B400D8906EA05352B434D8876
:1035300006EA05352B430B4DA84202D00A4DA8429E
:1035400008D14BF6FF752C408D894FF6FF7606EAC1
:1035500085152C4384808283CD88A0F84050038455
:1035600070BD0000002C0140003401400A460021DB
:10357000818B4FF2FF7319404FF6FF7303EA02236A
:103580001943818370470000002202881D4B984236
:103590000ED01D4B98420BD0B0F1804F08D01B4B82
:1035A000984205D01A4B984202D01A4B984204D147
:1035B0004FF68F731A404B881A43174B984207D027
:1035C000164B984204D04FF6FF431A40CB881A435B
:1035D00002808B8883850B8803850A4B98420BD029
:1035E000094B984208D00E4B984205D00D4B98429B
:1035F00002D00D4B984201D10B7A038601238382BE
:1036000070470000002C01400034014000040040DD
:1036100000080040000C0040001000400014004072
:1036200000400140004401400048014010B50E48F0
:103630000068401C0C49086040F225510B4800F01E
:10364000C0F850B10949091D0988C8B2FDF782FCCC
:1036500040F22551064800F099F84FF4587103489C
:1036600000F094F810BD0000480000200038014030
:103670000044004000B587B001212848FFF752FA06
:1036800027208DF8040001208DF8050000208DF81A
:10369000060001208DF8070001A8FFF701F94FF49B
:1036A0008060ADF8180018208DF81B0003208DF8FD
:1036B0001A0006A91A48FDF751FD4FF40060ADF855
:1036C000180004208DF81B0006A91548FDF746FDDB
:1036D0004FF4165002900020ADF80C00ADF80E002B
:1036E000ADF81000ADF814000C20ADF8120002A9DE
:1036F0000C4800F0B5F8002240F22771094800F0AC
:103700008AF8012240F22551064800F084F8012190
:10371000044800F04AF807B000BD000008000400AB
:10372000000C01400048004010B540F225510A4805
:1037300000F047F850B10849091D0988C8B2FDF7E3
:1037400009FC40F22551044800F020F84FF458716C
:10375000014800F01BF810BD0048004070B5054658
:103760000E4600240DE000BF0748008800F08000EE
:103770000028F9D0285781B2034800F0DDF8601C1A
:10378000C4B2B442EFDB70BD0048004010B5002267
:10379000002340F66A14A14200D100BF0A1201249E
:1037A0009440A3B2DC43048010BD21B1828942F46D
:1037B0000052828104E082894DF6FF731A408281B3
:1037C000704770B50246002400230025002040F613
:1037D0006A16B14200D100BFC1F3421501F01F03C8
:1037E000012606FA03F3012D02D19689334006E043
:1037F000022D02D1168A334001E0968A33400C1222
:10380000012606FA04F41688344013B10CB10120E5
:1038100000E0002070BDF0B503460024002600251E
:10382000002040F66A17B94200D100BF1846C1F324
:10383000421401F01F06012707FA06F5012C01D1F9
:103840000C3004E0022C01D1103000E014301AB129
:1038500007682F43076002E00768AF430760F0BDC9
:103860002DE9F04786B005460E460024A24600BF6B
:10387000A1460027B08900B100BF2F462C8A4CF624
:10388000FF700440F08804432C82AC894EF6F3109C
:103890000440B08831890843718908430443AC81EE
:1038A000AC8A4FF6FF400440B0890443AC8201A8C3
:1038B000FFF758F91F48874202D1DDF810A001E058
:1038C000DDF80CA0A88900F4004040B10AEBCA0062
:1038D00000EB0A1031684900B0FBF1F807E00AEB91
:1038E000CA0000EB0A1031688900B0FBF1F86420CF
:1038F000B8FBF0F004012009642101FB1089A889BC
:1039000000F4004040B1322000EBC900B0FBF1F000
:1039100000F00700044308E0322000EB09106421A6
:10392000B0FBF1F000F00F0004432C8106B0BDE8BD
:10393000F087000000380140C1F308028280704720
:1039400000BFFEE72DE9F0474FF00108002500F029
:1039500085FE00BF00203D4908603D490860002405
:103960003C49B1F90000FCF73FFE81464FF08E4123
:10397000FCF774FC07463849FCF73EFC0646FCF7AA
:1039800041FE364908603349B1F90200FCF72CFECC
:1039900081464FF08E41FCF761FC07462E49FCF74B
:1039A0002BFC0646FCF72EFE2D4908602949B1F98B
:1039B0000400FCF719FE81464FF08E41FCF74EFCE7
:1039C00007462549FCF718FC0646FCF71BFE25496F
:1039D0000860224800681E2804DC2048006810F1B6
:1039E0001E0F07DA00211D480068FEF79BFF1849EB
:1039F000086001241A4800681E2804DC1848006882
:103A000010F11E0F07DA002115480068FEF78AFF43
:103A10000E49086001240D4801680D48006800F057
:103A20005FFC0A2000F0CEFB0F480068401C0E49E6
:103A3000086008460068B0F57A7F00DD0024012C9C
:103A400088D001252846BDE8F0870000D800002076
:103A5000D4000020B000002000003443E00000202B
:103A6000E4000020E8000020DC000020490050EACB
:103A7000C12018BF04204A0D18BF40F0010040F2D9
:103A8000FF72B2EB515F08BF40F00200012808BF8F
:103A9000052070472DE9F0414F1E00EBC701044699
:103AA000D1E9000115461E4637F006020DD02A4620
:103AB0003346FCF7B8FC7F1E04EBC703D3E90023B1
:103AC000FCF70AFC37F00602F1D1022F25D0042FB3
:103AD00013D0062F18BFBDE8F0812A463346FCF705
:103AE000A2FCD4E90A23FCF7F7FB2A463346FCF78D
:103AF0009AFCD4E90823FCF7EFFB2A463346FCF78F
:103B000092FCD4E90623FCF7E7FB2A463346FCF790
:103B10008AFCD4E90423FCF7DFFB2A463346FCF792
:103B200082FCD4E90223FCF7D7FB2A463346FCF794
:103B30007AFCD4E90023BDE8F041FCF7CDBB0122BB
:103B4000FCF781BEFCF7C8BB0022134610461146A5
:103B5000FCF7DBBC024A00201107FCF774BE000032
:103B600001FDFFFF02E008C8121F08C1002AFAD1B8
:103B700070477047002001E001C1121F002AFBD1ED
:103B8000704700000149086070470000580100209C
:103B90002DE9F04D8D4F21F0004A86B005460C46C8
:103BA000BA452ADBAAEB070028430AD08848824599
:103BB00001DC1AD1CDB106B02846BDE8F04DFFF7C3
:103BC000BEBF844A844B2846FCF72DFC07460E46B0
:103BD000824A834B28462146FCF725FC06B03A462C
:103BE0003346BDE8F04DFCF777BB0120FFF7CAFF75
:103BF00006B0BDE8F04DFFF7A7BF7A48824542DA2C
:103C0000BAF1795F0BDA2846FFF730FF042808BFC6
:103C1000FFF7A0FF284606B02146BDE8F08D2A46F2
:103C20000B461046FCF7FFFB834602466E480E46E5
:103C30000B4606217844FFF72DFF5A463346FCF722
:103C4000F2FB804669488A465A4633460421784446
:103C5000FFF720FF5A463346FCF7E5FB00223B46C0
:103C6000FCF73AFB02460B4640465146FCF74DFC3A
:103C70002A462346FCF7D7FB06B02A462346BDE872
:103C8000F04DFCF729BB284624F0004100223D46B8
:103C90003B46FCF7C5FB4FF0FF32FCF7D4FD064670
:103CA000024653480F460B4606217844FFF7F2FEC2
:103CB00032463B46FCF7B7FBCDE900014D483246A2
:103CC0003B4604217844FFF7E5FE32463B46FCF7CD
:103CD000AAFB00222B46FCF7FFFA834602913046EE
:103CE000394600F07DFC804643480D46504517DCC0
:103CF000DDE900015A46029BFCF707FC42462B46D1
:103D0000FCF791FB42462B46FCF7E6FA0122FCF752
:103D10009AFD304A304BFCF780FB304A304B4CE088
:103D20004FF0000A52460B464046FCF7D5FACDE963
:103D3000031052462B4610461946FCF774FB3246D8
:103D40003B46FCF76DFBDDE90332FCF7DEFB064684
:103D50000F46DDE900015A46029BFCF7D6FB83467D
:103D60000091012230463946FCF76DFD194A1A4B85
:103D7000FCF756FB06460F46012240462946FCF753
:103D800062FD5A46009BFCF74EFB32463B46FCF771
:103D900044FB06460F46012250462946FCF753FDD8
:103DA0000E4DDFF858802A464346FCF739FB324671
:103DB0003B46FCF735FB2A464346FCF731FB002C1B
:103DC000D8BF81F0004106B0BDE8F08D0000F03FA3
:103DD0000000F07F075C143326A6913C182D445454
:103DE000FB21F93F0000E03FC00A0000D60A0000B6
:103DF0004A0A0000600A00003333EF3FFB21E93F2D
:103E00002DE9F84F04460D4621F00040009173491A
:103E1000814211DC7249884201DC06D12CB1204676
:103E20002946BDE8F84FFFF78ABE6E48002DCCBF8B
:103E30006D496E49BDE8F88F6D49814211DD6D49CC
:103E40008142D8BF4FF0FF366DDD20462946FFF78F
:103E50000DFE042808BFFFF77DFE20462946BDE879
:103E6000F88F6549654F25F00045814233DD64498F
:103E7000814219DD002632464FF080432046294614
:103E8000FCF72AFA80468A46012220462946FCF79A
:103E9000DAFC00223B46FCF7C0FA42465346FCF7E8
:103EA00034FB04460D463EE001260022BA463B465E
:103EB00020462946FCF710FA80460F46002253465A
:103EC00020462946FCF7A9FA42463B46FCF71DFB73
:103ED00004460D4627E04B4981421BDDDFF828A14F
:103EE00002260022534620462946FCF79CFA00226F
:103EF0003B46FCF7F1F980460F4600225346204628
:103F00002946FCF78AFA42463B46FCF7FEFA04468D
:103F10000D4608E0032622462B4600203B49FCF7CD
:103F2000F4FA04460D4622462B4610461946FCF785
:103F30007AFA8B46824602460B46FCF774FA07462D
:103F40000246334888460B4606217844FFF7A2FD17
:103F500052465B46FCF767FA82462E488B463A4645
:103F6000434605217844FFF795FD3A464346FCF762
:103F70005AFA02460B46002E504659460CDAFCF718
:103F8000ABF922462B46FCF74EFA01B022462B46EF
:103F9000BDE8F04FFCF744BAFCF79EF922462B46E9
:103FA000FCF741FA1C4A7A4402EBC603D3E900232A
:103FB000FCF733FA22462B46FCF72FFA174A7A44CD
:103FC00002EBC603D3E90023FCF72AFA009A002A81
:103FD000B8BF81F00041BDE8F88F00000000104438
:103FE0000000F07F182D4454FB21F93FFB21F9BF5D
:103FF0000000DC3F0000203E0000F33F0000F03FE7
:104000000000E63F008003400000F83F0000F0BFE2
:104010006208000020080000BE07000086070000BC
:104020002DE9F04D9446CCF1000423F000464CEA13
:104030000404524F46EAD4749A46884621F000425E
:10404000BC4206D8454240EA050442EAD474BC4268
:1040500004D9BDE8F04D6246FFF774BDAAF14055A2
:10406000A5F17F6555EA0C040BD0022404EAAA747A
:10407000434DDFF810E144EAD87452EA000B04D053
:104080000CE0BDE8F04DFFF7BBBE002C14BF012CC7
:10409000BDE8F08D022C30D0032C32D056EA0C0B48
:1040A0000AD0BE4220D1BA4209D126F0804622F081
:1040B00080423346114617E000291ADB25E0DFF87D
:1040C000C8B0FB44002C04BFDBE90001BDE8F08D63
:1040D000012C02BFDBE9000181F00041BDE8F08D59
:1040E000022C0AD0032C0CD0BA4212D1B8F1000F26
:1040F0000BDA23482549BDE8F08D28462449BDE860
:10410000F08D28467146BDE8F08D1D482149BDE877
:10411000F08D921B12153C2AC4BF19481D490EDCB4
:10412000BAF1000FBEBF12F13C0F0020014606DBC2
:104130006246FCF7EAF921F00041FFF761FE002C2E
:1041400008BFBDE8F08D012C04BF81F00041BDE83F
:10415000F08D114A114B022C07D0FCF75EF92A466C
:10416000BDE8F04D0A4BFCF758B9FCF756F92A4662
:10417000BDE8F04D064BFCF753B900000000F07F9E
:10418000182D4454FB2109C01A070000FB21F9BF78
:10419000FB210940FB21F93F075C143326A6A13C13
:1041A00000B585B06846FEF7DDFC04490098B0FB19
:1041B000F1F00349086005B000BD000040420F0067
:1041C0001400002030B50446FDF704FC054600BF8E
:1041D000FDF700FC401B04EB4401C1EBC411B0EB44
:1041E000C10FF5D330BD000010B5002440210748B1
:1041F000FDF73FF840B90A20FFF7E4FF40210348EC
:10420000FDF737F800B90124204610BD0008014031
:104210002DE9F04104460D4621692068FBF794FF23
:10422000606061696068FBF78FFF06463146606831
:10423000FCF714F8E0602846A168FBF7D7FF0746B3
:10424000E168FBF7D9FF0646A168FBF77DFFA06098
:104250004FF07E50E168FBF7C9FF06466168FBF747
:10426000CBFF2060BDE8F081FFF79AFF4FF4A0601C
:10427000FEF74EFB174800684FF47A72B0FBF2F17C
:10428000B1F1807F00D31DE021F07F40401E4FF050
:10429000E022506150170F22002807DA13071D0E85
:1042A0000D4B00F00F04241F1D5503E013071C0ED7
:1042B0000A4B1C5400BF00204FF0E0229061072001
:1042C000106100BFFCF764FB03E0FCF705FDFEF79F
:1042D0006FFBFAE70000002018ED00E000E400E0CA
:1042E000324A126843425B1A1A44304B1A601A462B
:1042F000526843420B441A442C4B5A601A46926847
:10430000431A1A44294B9A601A46D26843181A4431
:10431000264BDA601A461268002A01DA002209E008
:10432000224A1268B2F57A7F02DD4FF47A7201E018
:104330001E4A12684FF080439A861C4A5268002A2F
:1043400001DA002209E0194A5268B2F57A7F02DDEB
:104350004FF47A7201E0154A52684FF080431A8791
:10436000124A9268002A01DA002209E00F4A926894
:10437000B2F57A7F02DD4FF47A7201E00B4A92685F
:104380004FF080439A87094AD268002A01DA002256
:1043900009E0064AD268B2F57A7F02DD4FF47A72FC
:1043A00001E0024AD268024B1A8070472C010020BB
:1043B0004000004010B5024600200EE0002352F8F5
:1043C0002040E36052F82040A36052F82040A362EE
:1043D00052F820406360431CD8B28842EEDB10BD27
:1043E0002DE9F05F04460E46616A2068FBF7FEFE89
:1043F000054631462846FBF7FFFE8046E168FBF79D
:10440000A3FEE060A1682846FBF7F0FE8046314637
:10441000FBF724FF0746A0693946FBF7EDFE81460E
:10442000E1686069FBF7E8FE824620692946FBF7F0
:10443000E3FE83465146FBF787FE80464946FBF77D
:1044400083FEA062A560BDE8F09F00004FF08040B1
:104450000F4908610F4908614FF081400E4908611A
:1044600000200B4948610B4948610B4948610B48E2
:1044700007498861074988614FF07C500649886187
:1044800007480849086108490861084908617047F8
:1044900084010020B8010020EC0100200AD7A33DD0
:1044A0000000E0402002002054020020880200208A
:1044B00045488088B0F5966F07DA4348C088B0F564
:1044C000966F02DAFF2041490870404800780428BE
:1044D00034D006DC012809D0022811D003286CD181
:1044E00022E01F283CD0FF2867D156E0364880885C
:1044F00040F27E41884202DA02203449087060E0CE
:1045000031488088B0F5E16F0DDD31480078401CFE
:104510002F49087008460078052804DD002008703F
:1045200003202A4908704CE02748808840F27E41E9
:10453000884202DA04202549087042E0012025491A
:104540000870002048701F2020490870214880789A
:10455000012801D11F49C87000201F49887030E030
:1045600019488088B0F57F7F0CDA1C4801880088E4
:10457000401C1A4A1080B1F5FA6F0DDDFF20134977
:10458000087009E01348007818B9FF200F49087037
:1045900002E000201149088013E002200E498870D3
:1045A00000200E49088064200B490880002009493A
:1045B000087001200549087003E0FF2003490870D6
:1045C00000BF00BF704700007401002004010020FC
:1045D00008010020260000204C00002006010020D9
:1045E0002DE9F04106460F46FCF756F904000D464A
:1045F00018BF0120284320F00040C0F17F6000F187
:10460000E040C00F0ED0301C18BF0120384320F00E
:104610000040C0F17F6000F1E040C00F04BF012006
:10462000FFF7B0FA20462946BDE8F08108B5012120
:104630000420FEF787FA4020ADF8000048208DF8EE
:10464000030069460148FCF789FD08BD00080140E8
:1046500010B5FCF7CDFCFFF7E9FF10BD70B50024E5
:104660000025FFF7C1FD0446012C11D10A4800685E
:1046700080F0020008490860802008490860C820CE
:10468000FFF7A0FD80200549091D0860012500E015
:104690000025284670BD00000C0C014010080140A8
:1046A000084809498861002048614FF07C50086142
:1046B000044806498861002048614FF07C50086139
:1046C0007047000000002041580400208C040020A6
:1046D000112233445511223344550000DB0F494069
:1046E000E12E654235FA8E3CF6FF793D2E9E8B3ADF
:1046F000D80FC93F00000000555555555555C53FC9
:104700007D6FEB0312D6D4BF5544880E55C1C93F07
:104710003B8F68B52882A4BF88B20175E0EF493F9E
:1047200009F7FD0DE13D023F4B2D8A1C273A03C0DE
:10473000C88A599CE52A004059018D1B6C06E6BFCA
:1047400082922EB1C5B8B33F4FBB610567ACDD3F68
:10475000182D4454FB21E93F9BF681D20B73EF3FA8
:10476000182D4454FB21F93FE2652F227F2B7A3C20
:10477000075C143326A6813CBDCBF07A8807703CD9
:10478000075C143326A6913CC4EB98999999C9BF4C
:10479000711623FEC671BCBF6D9A74AFF2B0B3BF81
:1047A0009AFDDE522DDEADBF2F6C6A2C44B4A2BF41
:1047B0000D5555555555D53FFF8300922449C23FAD
:1047C0006E204CC5CD45B73F513DD0A0660DB13FE1
:1047D000EB0D76244B7BA93F11DA22E33AAD903FF3
:1047E0000000000000000000084800080000002051
:1047F0005C0100003A090008904800085C010020B4
:10480000CC070000743B00081184A24A0400091D73
:10481000010203040607080929256929B5020406CF
:1048200008542C0102135C01C6200AD7A33C0809D6
:104830002E6F12833A0C020B3F18011900181CFF4F
:10484000AA52FFAA67FFAA60FFAA61FFAA629A990B
:10485000193FCDCCCC3D1358041B208C04DB010147
:10486000D3711A84B81AB8041AEC041354021B202A
:1048700020041A88041ABC041AF00479301931692A
:10488000342009CDCC4C3F52499D39FA80AC000010
:04000005080000ED02
:00000001FF
